{
  "_format": "hh-sol-artifact-1",
  "contractName": "DataLiquidityPool",
  "sourceName": "contracts/dlp/DataLiquidityPool.sol",
  "abi": [
    {
      "inputs": [],
      "name": "AccessControlBadConfirmation",
      "type": "error"
    },
    {
      "inputs": [
        {
          "internalType": "address",
          "name": "account",
          "type": "address"
        },
        {
          "internalType": "bytes32",
          "name": "neededRole",
          "type": "bytes32"
        }
      ],
      "name": "AccessControlUnauthorizedAccount",
      "type": "error"
    },
    {
      "inputs": [
        {
          "internalType": "address",
          "name": "target",
          "type": "address"
        }
      ],
      "name": "AddressEmptyCode",
      "type": "error"
    },
    {
      "inputs": [
        {
          "internalType": "address",
          "name": "account",
          "type": "address"
        }
      ],
      "name": "AddressInsufficientBalance",
      "type": "error"
    },
    {
      "inputs": [],
      "name": "ArityMismatch",
      "type": "error"
    },
    {
      "inputs": [
        {
          "internalType": "address",
          "name": "implementation",
          "type": "address"
        }
      ],
      "name": "ERC1967InvalidImplementation",
      "type": "error"
    },
    {
      "inputs": [],
      "name": "ERC1967NonPayable",
      "type": "error"
    },
    {
      "inputs": [],
      "name": "EnforcedPause",
      "type": "error"
    },
    {
      "inputs": [],
      "name": "ExpectedPause",
      "type": "error"
    },
    {
      "inputs": [],
      "name": "FailedInnerCall",
      "type": "error"
    },
    {
      "inputs": [],
      "name": "FileAlreadyAdded",
      "type": "error"
    },
    {
      "inputs": [],
      "name": "FileAlreadyVerified",
      "type": "error"
    },
    {
      "inputs": [],
      "name": "FileNotVerified",
      "type": "error"
    },
    {
      "inputs": [],
      "name": "InvalidFileId",
      "type": "error"
    },
    {
      "inputs": [],
      "name": "InvalidInitialization",
      "type": "error"
    },
    {
      "inputs": [],
      "name": "InvalidStakeAmount",
      "type": "error"
    },
    {
      "inputs": [
        {
          "internalType": "uint256",
          "name": "reuired",
          "type": "uint256"
        },
        {
          "internalType": "uint256",
          "name": "current",
          "type": "uint256"
        }
      ],
      "name": "InvalidValidatorStatus",
      "type": "error"
    },
    {
      "inputs": [],
      "name": "MasterKeyAlreadySet",
      "type": "error"
    },
    {
      "inputs": [],
      "name": "NotFileOwner",
      "type": "error"
    },
    {
      "inputs": [],
      "name": "NotInitializing",
      "type": "error"
    },
    {
      "inputs": [],
      "name": "NotValidatorOwner",
      "type": "error"
    },
    {
      "inputs": [
        {
          "internalType": "address",
          "name": "owner",
          "type": "address"
        }
      ],
      "name": "OwnableInvalidOwner",
      "type": "error"
    },
    {
      "inputs": [
        {
          "internalType": "address",
          "name": "account",
          "type": "address"
        }
      ],
      "name": "OwnableUnauthorizedAccount",
      "type": "error"
    },
    {
      "inputs": [],
      "name": "ReentrancyGuardReentrantCall",
      "type": "error"
    },
    {
      "inputs": [
        {
          "internalType": "address",
          "name": "token",
          "type": "address"
        }
      ],
      "name": "SafeERC20FailedOperation",
      "type": "error"
    },
    {
      "inputs": [],
      "name": "TooManyValidators",
      "type": "error"
    },
    {
      "inputs": [],
      "name": "UUPSUnauthorizedCallContext",
      "type": "error"
    },
    {
      "inputs": [
        {
          "internalType": "bytes32",
          "name": "slot",
          "type": "bytes32"
        }
      ],
      "name": "UUPSUnsupportedProxiableUUID",
      "type": "error"
    },
    {
      "inputs": [],
      "name": "ValidatorAlreadyVerified",
      "type": "error"
    },
    {
      "inputs": [],
      "name": "VerificationDeadlineExceeded",
      "type": "error"
    },
    {
      "inputs": [],
      "name": "WithdrawNotAllowed",
      "type": "error"
    },
    {
      "anonymous": false,
      "inputs": [
        {
          "indexed": true,
          "internalType": "address",
          "name": "contributorAddress",
          "type": "address"
        },
        {
          "indexed": false,
          "internalType": "uint256",
          "name": "fileId",
          "type": "uint256"
        },
        {
          "indexed": false,
          "internalType": "uint256",
          "name": "amount",
          "type": "uint256"
        }
      ],
      "name": "ContributionRewardClaimed",
      "type": "event"
    },
    {
      "anonymous": false,
      "inputs": [
        {
          "indexed": false,
          "internalType": "uint256",
          "name": "epochId",
          "type": "uint256"
        }
      ],
      "name": "EpochCreated",
      "type": "event"
    },
    {
      "anonymous": false,
      "inputs": [
        {
          "indexed": false,
          "internalType": "uint256",
          "name": "newEpochRewardAmount",
          "type": "uint256"
        }
      ],
      "name": "EpochRewardAmountUpdated",
      "type": "event"
    },
    {
      "anonymous": false,
      "inputs": [
        {
          "indexed": false,
          "internalType": "uint256",
          "name": "newEpochSize",
          "type": "uint256"
        }
      ],
      "name": "EpochSizeUpdated",
      "type": "event"
    },
    {
      "anonymous": false,
      "inputs": [
        {
          "indexed": true,
          "internalType": "address",
          "name": "contributorAddress",
          "type": "address"
        },
        {
          "indexed": false,
          "internalType": "uint256",
          "name": "fileId",
          "type": "uint256"
        }
      ],
      "name": "FileAdded",
      "type": "event"
    },
    {
      "anonymous": false,
      "inputs": [
        {
          "indexed": false,
          "internalType": "uint256",
          "name": "newFileRewardDelay",
          "type": "uint256"
        }
      ],
      "name": "FileRewardDelayUpdated",
      "type": "event"
    },
    {
      "anonymous": false,
      "inputs": [
        {
          "indexed": false,
          "internalType": "uint256",
          "name": "newFileRewardFactor",
          "type": "uint256"
        }
      ],
      "name": "FileRewardFactorUpdated",
      "type": "event"
    },
    {
      "anonymous": false,
      "inputs": [
        {
          "indexed": true,
          "internalType": "address",
          "name": "validatorAddress",
          "type": "address"
        },
        {
          "indexed": false,
          "internalType": "uint256",
          "name": "fileId",
          "type": "uint256"
        },
        {
          "indexed": false,
          "internalType": "uint256",
          "name": "score",
          "type": "uint256"
        }
      ],
      "name": "FileVerified",
      "type": "event"
    },
    {
      "anonymous": false,
      "inputs": [
        {
          "indexed": false,
          "internalType": "uint64",
          "name": "version",
          "type": "uint64"
        }
      ],
      "name": "Initialized",
      "type": "event"
    },
    {
      "anonymous": false,
      "inputs": [
        {
          "indexed": false,
          "internalType": "string",
          "name": "newMasterKey",
          "type": "string"
        }
      ],
      "name": "MasterKeySet",
      "type": "event"
    },
    {
      "anonymous": false,
      "inputs": [
        {
          "indexed": false,
          "internalType": "uint256",
          "name": "newMaxNumberOfValidators",
          "type": "uint256"
        }
      ],
      "name": "MaxNumberOfValidatorsUpdated",
      "type": "event"
    },
    {
      "anonymous": false,
      "inputs": [
        {
          "indexed": false,
          "internalType": "uint256",
          "name": "newMinStakeAmount",
          "type": "uint256"
        }
      ],
      "name": "MinStakeAmountUpdated",
      "type": "event"
    },
    {
      "anonymous": false,
      "inputs": [
        {
          "indexed": true,
          "internalType": "address",
          "name": "previousOwner",
          "type": "address"
        },
        {
          "indexed": true,
          "internalType": "address",
          "name": "newOwner",
          "type": "address"
        }
      ],
      "name": "OwnershipTransferStarted",
      "type": "event"
    },
    {
      "anonymous": false,
      "inputs": [
        {
          "indexed": true,
          "internalType": "address",
          "name": "previousOwner",
          "type": "address"
        },
        {
          "indexed": true,
          "internalType": "address",
          "name": "newOwner",
          "type": "address"
        }
      ],
      "name": "OwnershipTransferred",
      "type": "event"
    },
    {
      "anonymous": false,
      "inputs": [
        {
          "indexed": false,
          "internalType": "address",
          "name": "account",
          "type": "address"
        }
      ],
      "name": "Paused",
      "type": "event"
    },
    {
      "anonymous": false,
      "inputs": [
        {
          "indexed": true,
          "internalType": "bytes32",
          "name": "role",
          "type": "bytes32"
        },
        {
          "indexed": true,
          "internalType": "bytes32",
          "name": "previousAdminRole",
          "type": "bytes32"
        },
        {
          "indexed": true,
          "internalType": "bytes32",
          "name": "newAdminRole",
          "type": "bytes32"
        }
      ],
      "name": "RoleAdminChanged",
      "type": "event"
    },
    {
      "anonymous": false,
      "inputs": [
        {
          "indexed": true,
          "internalType": "bytes32",
          "name": "role",
          "type": "bytes32"
        },
        {
          "indexed": true,
          "internalType": "address",
          "name": "account",
          "type": "address"
        },
        {
          "indexed": true,
          "internalType": "address",
          "name": "sender",
          "type": "address"
        }
      ],
      "name": "RoleGranted",
      "type": "event"
    },
    {
      "anonymous": false,
      "inputs": [
        {
          "indexed": true,
          "internalType": "bytes32",
          "name": "role",
          "type": "bytes32"
        },
        {
          "indexed": true,
          "internalType": "address",
          "name": "account",
          "type": "address"
        },
        {
          "indexed": true,
          "internalType": "address",
          "name": "sender",
          "type": "address"
        }
      ],
      "name": "RoleRevoked",
      "type": "event"
    },
    {
      "anonymous": false,
      "inputs": [
        {
          "indexed": true,
          "internalType": "address",
          "name": "validatorAddress",
          "type": "address"
        },
        {
          "indexed": false,
          "internalType": "uint256",
          "name": "amount",
          "type": "uint256"
        },
        {
          "indexed": false,
          "internalType": "uint256",
          "name": "totalAmount",
          "type": "uint256"
        }
      ],
      "name": "Staked",
      "type": "event"
    },
    {
      "anonymous": false,
      "inputs": [
        {
          "indexed": false,
          "internalType": "address",
          "name": "account",
          "type": "address"
        }
      ],
      "name": "Unpaused",
      "type": "event"
    },
    {
      "anonymous": false,
      "inputs": [
        {
          "indexed": true,
          "internalType": "address",
          "name": "stakerAddress",
          "type": "address"
        },
        {
          "indexed": false,
          "internalType": "uint256",
          "name": "amount",
          "type": "uint256"
        }
      ],
      "name": "Unstaked",
      "type": "event"
    },
    {
      "anonymous": false,
      "inputs": [
        {
          "indexed": true,
          "internalType": "address",
          "name": "implementation",
          "type": "address"
        }
      ],
      "name": "Upgraded",
      "type": "event"
    },
    {
      "anonymous": false,
      "inputs": [
        {
          "indexed": false,
          "internalType": "uint256",
          "name": "newValidationPeriod",
          "type": "uint256"
        }
      ],
      "name": "ValidationPeriodUpdated",
      "type": "event"
    },
    {
      "anonymous": false,
      "inputs": [
        {
          "indexed": true,
          "internalType": "address",
          "name": "validatorAddress",
          "type": "address"
        }
      ],
      "name": "ValidatorApproved",
      "type": "event"
    },
    {
      "anonymous": false,
      "inputs": [
        {
          "indexed": true,
          "internalType": "address",
          "name": "validatorAddress",
          "type": "address"
        }
      ],
      "name": "ValidatorDeregistered",
      "type": "event"
    },
    {
      "anonymous": false,
      "inputs": [
        {
          "indexed": true,
          "internalType": "address",
          "name": "validatorAddress",
          "type": "address"
        }
      ],
      "name": "ValidatorInactivated",
      "type": "event"
    },
    {
      "anonymous": false,
      "inputs": [
        {
          "indexed": true,
          "internalType": "address",
          "name": "validatorAddress",
          "type": "address"
        },
        {
          "indexed": true,
          "internalType": "address",
          "name": "ownerAddress",
          "type": "address"
        },
        {
          "indexed": false,
          "internalType": "uint256",
          "name": "amount",
          "type": "uint256"
        }
      ],
      "name": "ValidatorRegistered",
      "type": "event"
    },
    {
      "anonymous": false,
      "inputs": [
        {
          "indexed": false,
          "internalType": "uint256",
          "name": "newValidatorScoreKappa",
          "type": "uint256"
        }
      ],
      "name": "ValidatorScoreKappaUpdated",
      "type": "event"
    },
    {
      "anonymous": false,
      "inputs": [
        {
          "indexed": false,
          "internalType": "uint256",
          "name": "newValidatorScoreMinTrust",
          "type": "uint256"
        }
      ],
      "name": "ValidatorScoreMinTrustUpdated",
      "type": "event"
    },
    {
      "anonymous": false,
      "inputs": [
        {
          "indexed": false,
          "internalType": "uint256",
          "name": "newValidatorScoreRho",
          "type": "uint256"
        }
      ],
      "name": "ValidatorScoreRhoUpdated",
      "type": "event"
    },
    {
      "anonymous": false,
      "inputs": [
        {
          "indexed": true,
          "internalType": "address",
          "name": "validatorAddress",
          "type": "address"
        }
      ],
      "name": "ValidatorUnregisterd",
      "type": "event"
    },
    {
      "anonymous": false,
      "inputs": [
        {
          "indexed": true,
          "internalType": "address",
          "name": "validatorAddress",
          "type": "address"
        },
        {
          "indexed": false,
          "internalType": "address[]",
          "name": "validators",
          "type": "address[]"
        },
        {
          "indexed": false,
          "internalType": "uint256[]",
          "name": "weights",
          "type": "uint256[]"
        }
      ],
      "name": "WeightsUpdated",
      "type": "event"
    },
    {
      "inputs": [],
      "name": "DEFAULT_ADMIN_ROLE",
      "outputs": [
        {
          "internalType": "bytes32",
          "name": "",
          "type": "bytes32"
        }
      ],
      "stateMutability": "view",
      "type": "function"
    },
    {
      "inputs": [],
      "name": "UPGRADE_INTERFACE_VERSION",
      "outputs": [
        {
          "internalType": "string",
          "name": "",
          "type": "string"
        }
      ],
      "stateMutability": "view",
      "type": "function"
    },
    {
      "inputs": [],
      "name": "acceptOwnership",
      "outputs": [],
      "stateMutability": "nonpayable",
      "type": "function"
    },
    {
      "inputs": [
        {
          "internalType": "uint256",
          "name": "id",
          "type": "uint256"
        }
      ],
      "name": "activeValidatorsLists",
      "outputs": [
        {
          "internalType": "address[]",
          "name": "",
          "type": "address[]"
        }
      ],
      "stateMutability": "view",
      "type": "function"
    },
    {
      "inputs": [],
      "name": "activeValidatorsListsCount",
      "outputs": [
        {
          "internalType": "uint256",
          "name": "",
          "type": "uint256"
        }
      ],
      "stateMutability": "view",
      "type": "function"
    },
    {
      "inputs": [
        {
          "internalType": "string",
          "name": "url",
          "type": "string"
        },
        {
          "internalType": "string",
          "name": "encryptedKey",
          "type": "string"
        }
      ],
      "name": "addFile",
      "outputs": [],
      "stateMutability": "nonpayable",
      "type": "function"
    },
    {
      "inputs": [
        {
          "internalType": "uint256",
          "name": "validatorsRewardAmount",
          "type": "uint256"
        }
      ],
      "name": "addRewardForValidators",
      "outputs": [],
      "stateMutability": "nonpayable",
      "type": "function"
    },
    {
      "inputs": [
        {
          "internalType": "uint256",
          "name": "contributorsRewardAmount",
          "type": "uint256"
        }
      ],
      "name": "addRewardsForContributors",
      "outputs": [],
      "stateMutability": "nonpayable",
      "type": "function"
    },
    {
      "inputs": [
        {
          "internalType": "address",
          "name": "validatorAddress",
          "type": "address"
        }
      ],
      "name": "approveValidator",
      "outputs": [],
      "stateMutability": "nonpayable",
      "type": "function"
    },
    {
      "inputs": [
        {
          "internalType": "uint256",
          "name": "fileId",
          "type": "uint256"
        }
      ],
      "name": "claimContributionReward",
      "outputs": [],
      "stateMutability": "nonpayable",
      "type": "function"
    },
    {
      "inputs": [
        {
          "internalType": "address",
          "name": "contributorAddress",
          "type": "address"
        },
        {
          "internalType": "uint256",
          "name": "index",
          "type": "uint256"
        }
      ],
      "name": "contributorFiles",
      "outputs": [
        {
          "components": [
            {
              "internalType": "uint256",
              "name": "fileId",
              "type": "uint256"
            },
            {
              "internalType": "address",
              "name": "contributorAddress",
              "type": "address"
            },
            {
              "internalType": "string",
              "name": "url",
              "type": "string"
            },
            {
              "internalType": "string",
              "name": "encryptedKey",
              "type": "string"
            },
            {
              "internalType": "uint256",
              "name": "addedAt",
              "type": "uint256"
            },
            {
              "internalType": "uint256",
              "name": "reward",
              "type": "uint256"
            },
            {
              "internalType": "uint256",
              "name": "rewardWithdrawn",
              "type": "uint256"
            },
            {
              "internalType": "uint256",
              "name": "verificationsCount",
              "type": "uint256"
            },
            {
              "internalType": "bool",
              "name": "isVerified",
              "type": "bool"
            }
          ],
          "internalType": "struct IDataLiquidityPool.FileResponse",
          "name": "",
          "type": "tuple"
        }
      ],
      "stateMutability": "view",
      "type": "function"
    },
    {
      "inputs": [
        {
          "internalType": "address",
          "name": "contributorAddress",
          "type": "address"
        }
      ],
      "name": "contributorInfo",
      "outputs": [
        {
          "components": [
            {
              "internalType": "address",
              "name": "contributorAddress",
              "type": "address"
            },
            {
              "internalType": "uint256",
              "name": "fileIdsCount",
              "type": "uint256"
            }
          ],
          "internalType": "struct IDataLiquidityPool.ContributorInfoResponse",
          "name": "",
          "type": "tuple"
        }
      ],
      "stateMutability": "view",
      "type": "function"
    },
    {
      "inputs": [
        {
          "internalType": "uint256",
          "name": "index",
          "type": "uint256"
        }
      ],
      "name": "contributors",
      "outputs": [
        {
          "components": [
            {
              "internalType": "address",
              "name": "contributorAddress",
              "type": "address"
            },
            {
              "internalType": "uint256",
              "name": "fileIdsCount",
              "type": "uint256"
            }
          ],
          "internalType": "struct IDataLiquidityPool.ContributorInfoResponse",
          "name": "",
          "type": "tuple"
        }
      ],
      "stateMutability": "view",
      "type": "function"
    },
    {
      "inputs": [],
      "name": "contributorsCount",
      "outputs": [
        {
          "internalType": "uint256",
          "name": "",
          "type": "uint256"
        }
      ],
      "stateMutability": "view",
      "type": "function"
    },
    {
      "inputs": [],
      "name": "createEpochs",
      "outputs": [],
      "stateMutability": "nonpayable",
      "type": "function"
    },
    {
      "inputs": [
        {
          "internalType": "uint256",
          "name": "blockNumber",
          "type": "uint256"
        }
      ],
      "name": "createEpochsUntilBlockNumber",
      "outputs": [],
      "stateMutability": "nonpayable",
      "type": "function"
    },
    {
      "inputs": [
        {
          "internalType": "address",
          "name": "validatorAddress",
          "type": "address"
        }
      ],
      "name": "deregisterValidator",
      "outputs": [],
      "stateMutability": "nonpayable",
      "type": "function"
    },
    {
      "inputs": [
        {
          "internalType": "address",
          "name": "validatorAddress",
          "type": "address"
        },
        {
          "internalType": "uint256",
          "name": "validatorAmount",
          "type": "uint256"
        }
      ],
      "name": "deregisterValidatorByOwner",
      "outputs": [],
      "stateMutability": "nonpayable",
      "type": "function"
    },
    {
      "inputs": [],
      "name": "epochRewardAmount",
      "outputs": [
        {
          "internalType": "uint256",
          "name": "",
          "type": "uint256"
        }
      ],
      "stateMutability": "view",
      "type": "function"
    },
    {
      "inputs": [
        {
          "internalType": "uint256",
          "name": "epochId",
          "type": "uint256"
        }
      ],
      "name": "epochRewards",
      "outputs": [
        {
          "internalType": "address[]",
          "name": "validators",
          "type": "address[]"
        },
        {
          "internalType": "uint256[]",
          "name": "shares",
          "type": "uint256[]"
        },
        {
          "internalType": "uint256[]",
          "name": "withdrawnAmounts",
          "type": "uint256[]"
        }
      ],
      "stateMutability": "view",
      "type": "function"
    },
    {
      "inputs": [],
      "name": "epochSize",
      "outputs": [
        {
          "internalType": "uint256",
          "name": "",
          "type": "uint256"
        }
      ],
      "stateMutability": "view",
      "type": "function"
    },
    {
      "inputs": [
        {
          "internalType": "uint256",
          "name": "epochId",
          "type": "uint256"
        }
      ],
      "name": "epochs",
      "outputs": [
        {
          "internalType": "uint256",
          "name": "startBlock",
          "type": "uint256"
        },
        {
          "internalType": "uint256",
          "name": "endBlock",
          "type": "uint256"
        },
        {
          "internalType": "uint256",
          "name": "reward",
          "type": "uint256"
        },
        {
          "internalType": "uint256",
          "name": "validatorsListId",
          "type": "uint256"
        }
      ],
      "stateMutability": "view",
      "type": "function"
    },
    {
      "inputs": [],
      "name": "epochsCount",
      "outputs": [
        {
          "internalType": "uint256",
          "name": "",
          "type": "uint256"
        }
      ],
      "stateMutability": "view",
      "type": "function"
    },
    {
      "inputs": [],
      "name": "fileRewardDelay",
      "outputs": [
        {
          "internalType": "uint256",
          "name": "",
          "type": "uint256"
        }
      ],
      "stateMutability": "view",
      "type": "function"
    },
    {
      "inputs": [],
      "name": "fileRewardFactor",
      "outputs": [
        {
          "internalType": "uint256",
          "name": "",
          "type": "uint256"
        }
      ],
      "stateMutability": "view",
      "type": "function"
    },
    {
      "inputs": [
        {
          "internalType": "uint256",
          "name": "fileId",
          "type": "uint256"
        },
        {
          "internalType": "address",
          "name": "validatorAddress",
          "type": "address"
        }
      ],
      "name": "fileVerifications",
      "outputs": [
        {
          "components": [
            {
              "internalType": "address",
              "name": "validatorAddress",
              "type": "address"
            },
            {
              "internalType": "uint256",
              "name": "reportedAt",
              "type": "uint256"
            },
            {
              "internalType": "uint256",
              "name": "reportedAtBlock",
              "type": "uint256"
            },
            {
              "internalType": "uint256",
              "name": "score",
              "type": "uint256"
            },
            {
              "internalType": "uint256",
              "name": "authenticity",
              "type": "uint256"
            },
            {
              "internalType": "uint256",
              "name": "ownership",
              "type": "uint256"
            },
            {
              "internalType": "uint256",
              "name": "quality",
              "type": "uint256"
            },
            {
              "internalType": "uint256",
              "name": "uniqueness",
              "type": "uint256"
            },
            {
              "internalType": "string",
              "name": "metadata",
              "type": "string"
            }
          ],
          "internalType": "struct IDataLiquidityPool.FileVerificationInfo",
          "name": "",
          "type": "tuple"
        }
      ],
      "stateMutability": "view",
      "type": "function"
    },
    {
      "inputs": [
        {
          "internalType": "uint256",
          "name": "fileId",
          "type": "uint256"
        }
      ],
      "name": "files",
      "outputs": [
        {
          "components": [
            {
              "internalType": "uint256",
              "name": "fileId",
              "type": "uint256"
            },
            {
              "internalType": "address",
              "name": "contributorAddress",
              "type": "address"
            },
            {
              "internalType": "string",
              "name": "url",
              "type": "string"
            },
            {
              "internalType": "string",
              "name": "encryptedKey",
              "type": "string"
            },
            {
              "internalType": "uint256",
              "name": "addedAt",
              "type": "uint256"
            },
            {
              "internalType": "uint256",
              "name": "reward",
              "type": "uint256"
            },
            {
              "internalType": "uint256",
              "name": "rewardWithdrawn",
              "type": "uint256"
            },
            {
              "internalType": "uint256",
              "name": "verificationsCount",
              "type": "uint256"
            },
            {
              "internalType": "bool",
              "name": "isVerified",
              "type": "bool"
            }
          ],
          "internalType": "struct IDataLiquidityPool.FileResponse",
          "name": "",
          "type": "tuple"
        }
      ],
      "stateMutability": "view",
      "type": "function"
    },
    {
      "inputs": [],
      "name": "filesCount",
      "outputs": [
        {
          "internalType": "uint256",
          "name": "",
          "type": "uint256"
        }
      ],
      "stateMutability": "view",
      "type": "function"
    },
    {
      "inputs": [],
      "name": "getActiveValidators",
      "outputs": [
        {
          "internalType": "address[]",
          "name": "",
          "type": "address[]"
        }
      ],
      "stateMutability": "view",
      "type": "function"
    },
    {
      "inputs": [
        {
          "internalType": "uint256",
          "name": "epochNumber",
          "type": "uint256"
        }
      ],
      "name": "getEmissionScores",
      "outputs": [
        {
          "internalType": "uint256[]",
          "name": "",
          "type": "uint256[]"
        }
      ],
      "stateMutability": "view",
      "type": "function"
    },
    {
      "inputs": [
        {
          "internalType": "uint256",
          "name": "fileId",
          "type": "uint256"
        }
      ],
      "name": "getFileInfo",
      "outputs": [
        {
          "internalType": "address",
          "name": "contributorAddress",
          "type": "address"
        },
        {
          "internalType": "uint256",
          "name": "addedAt",
          "type": "uint256"
        },
        {
          "internalType": "uint256",
          "name": "verificationsCount",
          "type": "uint256"
        },
        {
          "internalType": "bool",
          "name": "isVerified",
          "type": "bool"
        },
        {
          "internalType": "uint256",
          "name": "overallScore",
          "type": "uint256"
        },
        {
          "internalType": "uint256",
          "name": "authenticity",
          "type": "uint256"
        },
        {
          "internalType": "uint256",
          "name": "ownership",
          "type": "uint256"
        },
        {
          "internalType": "uint256",
          "name": "quality",
          "type": "uint256"
        },
        {
          "internalType": "uint256",
          "name": "uniqueness",
          "type": "uint256"
        },
        {
          "components": [
            {
              "internalType": "address",
              "name": "validatorAddress",
              "type": "address"
            },
            {
              "internalType": "uint256",
              "name": "reportedAt",
              "type": "uint256"
            },
            {
              "internalType": "uint256",
              "name": "reportedAtBlock",
              "type": "uint256"
            },
            {
              "internalType": "uint256",
              "name": "score",
              "type": "uint256"
            },
            {
              "internalType": "uint256",
              "name": "authenticity",
              "type": "uint256"
            },
            {
              "internalType": "uint256",
              "name": "ownership",
              "type": "uint256"
            },
            {
              "internalType": "uint256",
              "name": "quality",
              "type": "uint256"
            },
            {
              "internalType": "uint256",
              "name": "uniqueness",
              "type": "uint256"
            },
            {
              "internalType": "string",
              "name": "metadata",
              "type": "string"
            }
          ],
          "internalType": "struct IDataLiquidityPool.FileVerificationInfo[]",
          "name": "validatorScores",
          "type": "tuple[]"
        }
      ],
      "stateMutability": "view",
      "type": "function"
    },
    {
      "inputs": [
        {
          "internalType": "uint256",
          "name": "fileId",
          "type": "uint256"
        },
        {
          "internalType": "address",
          "name": "validatorAddress",
          "type": "address"
        }
      ],
      "name": "getFileVerification",
      "outputs": [
        {
          "components": [
            {
              "internalType": "address",
              "name": "validatorAddress",
              "type": "address"
            },
            {
              "internalType": "uint256",
              "name": "reportedAt",
              "type": "uint256"
            },
            {
              "internalType": "uint256",
              "name": "reportedAtBlock",
              "type": "uint256"
            },
            {
              "internalType": "uint256",
              "name": "score",
              "type": "uint256"
            },
            {
              "internalType": "uint256",
              "name": "authenticity",
              "type": "uint256"
            },
            {
              "internalType": "uint256",
              "name": "ownership",
              "type": "uint256"
            },
            {
              "internalType": "uint256",
              "name": "quality",
              "type": "uint256"
            },
            {
              "internalType": "uint256",
              "name": "uniqueness",
              "type": "uint256"
            },
            {
              "internalType": "string",
              "name": "metadata",
              "type": "string"
            }
          ],
          "internalType": "struct IDataLiquidityPool.FileVerificationInfo",
          "name": "",
          "type": "tuple"
        }
      ],
      "stateMutability": "view",
      "type": "function"
    },
    {
      "inputs": [],
      "name": "getNextFileToVerify",
      "outputs": [
        {
          "components": [
            {
              "internalType": "uint256",
              "name": "fileId",
              "type": "uint256"
            },
            {
              "internalType": "string",
              "name": "url",
              "type": "string"
            },
            {
              "internalType": "string",
              "name": "encryptedKey",
              "type": "string"
            },
            {
              "internalType": "uint256",
              "name": "addedTime",
              "type": "uint256"
            }
          ],
          "internalType": "struct IDataLiquidityPool.NextFileToVerify",
          "name": "",
          "type": "tuple"
        }
      ],
      "stateMutability": "view",
      "type": "function"
    },
    {
      "inputs": [
        {
          "internalType": "bytes32",
          "name": "role",
          "type": "bytes32"
        }
      ],
      "name": "getRoleAdmin",
      "outputs": [
        {
          "internalType": "bytes32",
          "name": "",
          "type": "bytes32"
        }
      ],
      "stateMutability": "view",
      "type": "function"
    },
    {
      "inputs": [
        {
          "internalType": "bytes32",
          "name": "role",
          "type": "bytes32"
        },
        {
          "internalType": "address",
          "name": "account",
          "type": "address"
        }
      ],
      "name": "grantRole",
      "outputs": [],
      "stateMutability": "nonpayable",
      "type": "function"
    },
    {
      "inputs": [
        {
          "internalType": "bytes32",
          "name": "role",
          "type": "bytes32"
        },
        {
          "internalType": "address",
          "name": "account",
          "type": "address"
        }
      ],
      "name": "hasRole",
      "outputs": [
        {
          "internalType": "bool",
          "name": "",
          "type": "bool"
        }
      ],
      "stateMutability": "view",
      "type": "function"
    },
    {
      "inputs": [
        {
          "internalType": "address",
          "name": "validatorAddress",
          "type": "address"
        }
      ],
      "name": "inactivateValidator",
      "outputs": [],
      "stateMutability": "nonpayable",
      "type": "function"
    },
    {
      "inputs": [
        {
          "internalType": "address",
          "name": "ownerAddress",
          "type": "address"
        },
        {
          "internalType": "address",
          "name": "tokenAddress",
          "type": "address"
        },
        {
          "internalType": "uint256",
          "name": "newMaxNumberOfValidators",
          "type": "uint256"
        },
        {
          "internalType": "uint256",
          "name": "newValidatorScoreMinTrust",
          "type": "uint256"
        },
        {
          "internalType": "uint256",
          "name": "newValidatorScoreKappa",
          "type": "uint256"
        },
        {
          "internalType": "uint256",
          "name": "newValidatorScoreRho",
          "type": "uint256"
        },
        {
          "internalType": "uint256",
          "name": "newValidationPeriod",
          "type": "uint256"
        },
        {
          "internalType": "uint256",
          "name": "newMinStakeAmount",
          "type": "uint256"
        },
        {
          "internalType": "uint256",
          "name": "startBlock",
          "type": "uint256"
        },
        {
          "internalType": "uint256",
          "name": "newEpochSize",
          "type": "uint256"
        },
        {
          "internalType": "uint256",
          "name": "newEpochRewardAmount",
          "type": "uint256"
        },
        {
          "internalType": "uint256",
          "name": "newFileRewardFactor",
          "type": "uint256"
        },
        {
          "internalType": "uint256",
          "name": "newFileRewardDelay",
          "type": "uint256"
        }
      ],
      "name": "initialize",
      "outputs": [],
      "stateMutability": "nonpayable",
      "type": "function"
    },
    {
      "inputs": [],
      "name": "lastAddedFileId",
      "outputs": [
        {
          "internalType": "uint256",
          "name": "",
          "type": "uint256"
        }
      ],
      "stateMutability": "view",
      "type": "function"
    },
    {
      "inputs": [],
      "name": "masterKey",
      "outputs": [
        {
          "internalType": "string",
          "name": "",
          "type": "string"
        }
      ],
      "stateMutability": "view",
      "type": "function"
    },
    {
      "inputs": [],
      "name": "maxNumberOfValidators",
      "outputs": [
        {
          "internalType": "uint256",
          "name": "",
          "type": "uint256"
        }
      ],
      "stateMutability": "view",
      "type": "function"
    },
    {
      "inputs": [],
      "name": "minStakeAmount",
      "outputs": [
        {
          "internalType": "uint256",
          "name": "",
          "type": "uint256"
        }
      ],
      "stateMutability": "view",
      "type": "function"
    },
    {
      "inputs": [],
      "name": "nextFileToVerifyId",
      "outputs": [
        {
          "internalType": "uint256",
          "name": "",
          "type": "uint256"
        }
      ],
      "stateMutability": "view",
      "type": "function"
    },
    {
      "inputs": [],
      "name": "owner",
      "outputs": [
        {
          "internalType": "address",
          "name": "",
          "type": "address"
        }
      ],
      "stateMutability": "view",
      "type": "function"
    },
    {
      "inputs": [],
      "name": "pause",
      "outputs": [],
      "stateMutability": "nonpayable",
      "type": "function"
    },
    {
      "inputs": [],
      "name": "paused",
      "outputs": [
        {
          "internalType": "bool",
          "name": "",
          "type": "bool"
        }
      ],
      "stateMutability": "view",
      "type": "function"
    },
    {
      "inputs": [],
      "name": "pendingOwner",
      "outputs": [
        {
          "internalType": "address",
          "name": "",
          "type": "address"
        }
      ],
      "stateMutability": "view",
      "type": "function"
    },
    {
      "inputs": [],
      "name": "proxiableUUID",
      "outputs": [
        {
          "internalType": "bytes32",
          "name": "",
          "type": "bytes32"
        }
      ],
      "stateMutability": "view",
      "type": "function"
    },
    {
      "inputs": [
        {
          "internalType": "uint256",
          "name": "xWAD",
          "type": "uint256"
        },
        {
          "internalType": "uint256",
          "name": "aWAD",
          "type": "uint256"
        },
        {
          "internalType": "uint256",
          "name": "pWAD",
          "type": "uint256"
        },
        {
          "internalType": "uint256",
          "name": "kWAD",
          "type": "uint256"
        },
        {
          "internalType": "uint256",
          "name": "cWAD",
          "type": "uint256"
        }
      ],
      "name": "rationalSigmoid",
      "outputs": [
        {
          "internalType": "uint256",
          "name": "",
          "type": "uint256"
        }
      ],
      "stateMutability": "pure",
      "type": "function"
    },
    {
      "inputs": [
        {
          "internalType": "address",
          "name": "validatorAddress",
          "type": "address"
        },
        {
          "internalType": "address",
          "name": "validatorOwnerAddress",
          "type": "address"
        },
        {
          "internalType": "uint256",
          "name": "stakeAmount",
          "type": "uint256"
        }
      ],
      "name": "registerValidator",
      "outputs": [],
      "stateMutability": "nonpayable",
      "type": "function"
    },
    {
      "inputs": [],
      "name": "renounceOwnership",
      "outputs": [],
      "stateMutability": "nonpayable",
      "type": "function"
    },
    {
      "inputs": [
        {
          "internalType": "bytes32",
          "name": "role",
          "type": "bytes32"
        },
        {
          "internalType": "address",
          "name": "callerConfirmation",
          "type": "address"
        }
      ],
      "name": "renounceRole",
      "outputs": [],
      "stateMutability": "nonpayable",
      "type": "function"
    },
    {
      "inputs": [
        {
          "internalType": "bytes32",
          "name": "role",
          "type": "bytes32"
        },
        {
          "internalType": "address",
          "name": "account",
          "type": "address"
        }
      ],
      "name": "revokeRole",
      "outputs": [],
      "stateMutability": "nonpayable",
      "type": "function"
    },
    {
      "inputs": [
        {
          "internalType": "string",
          "name": "newMasterKey",
          "type": "string"
        }
      ],
      "name": "setMasterKey",
      "outputs": [],
      "stateMutability": "nonpayable",
      "type": "function"
    },
    {
      "inputs": [
        {
          "internalType": "bytes4",
          "name": "interfaceId",
          "type": "bytes4"
        }
      ],
      "name": "supportsInterface",
      "outputs": [
        {
          "internalType": "bool",
          "name": "",
          "type": "bool"
        }
      ],
      "stateMutability": "view",
      "type": "function"
    },
    {
      "inputs": [],
      "name": "token",
      "outputs": [
        {
          "internalType": "contract IERC20",
          "name": "",
          "type": "address"
        }
      ],
      "stateMutability": "view",
      "type": "function"
    },
    {
      "inputs": [],
      "name": "totalContributorsRewardAmount",
      "outputs": [
        {
          "internalType": "uint256",
          "name": "",
          "type": "uint256"
        }
      ],
      "stateMutability": "view",
      "type": "function"
    },
    {
      "inputs": [],
      "name": "totalStaked",
      "outputs": [
        {
          "internalType": "uint256",
          "name": "",
          "type": "uint256"
        }
      ],
      "stateMutability": "view",
      "type": "function"
    },
    {
      "inputs": [],
      "name": "totalValidatorsRewardAmount",
      "outputs": [
        {
          "internalType": "uint256",
          "name": "",
          "type": "uint256"
        }
      ],
      "stateMutability": "view",
      "type": "function"
    },
    {
      "inputs": [
        {
          "internalType": "address",
          "name": "newOwner",
          "type": "address"
        }
      ],
      "name": "transferOwnership",
      "outputs": [],
      "stateMutability": "nonpayable",
      "type": "function"
    },
    {
      "inputs": [],
      "name": "unpause",
      "outputs": [],
      "stateMutability": "nonpayable",
      "type": "function"
    },
    {
      "inputs": [
        {
          "internalType": "uint256",
          "name": "newEpochRewardAmount",
          "type": "uint256"
        }
      ],
      "name": "updateEpochRewardAmount",
      "outputs": [],
      "stateMutability": "nonpayable",
      "type": "function"
    },
    {
      "inputs": [
        {
          "internalType": "uint256",
          "name": "newEpochSize",
          "type": "uint256"
        }
      ],
      "name": "updateEpochSize",
      "outputs": [],
      "stateMutability": "nonpayable",
      "type": "function"
    },
    {
      "inputs": [
        {
          "internalType": "uint256",
          "name": "newFileRewardDelay",
          "type": "uint256"
        }
      ],
      "name": "updateFileRewardDelay",
      "outputs": [],
      "stateMutability": "nonpayable",
      "type": "function"
    },
    {
      "inputs": [
        {
          "internalType": "uint256",
          "name": "newFileRewardFactor",
          "type": "uint256"
        }
      ],
      "name": "updateFileRewardFactor",
      "outputs": [],
      "stateMutability": "nonpayable",
      "type": "function"
    },
    {
      "inputs": [
        {
          "internalType": "uint256",
          "name": "newMaxNumberOfValidators",
          "type": "uint256"
        }
      ],
      "name": "updateMaxNumberOfValidators",
      "outputs": [],
      "stateMutability": "nonpayable",
      "type": "function"
    },
    {
      "inputs": [
        {
          "internalType": "uint256",
          "name": "newMinStakeAmount",
          "type": "uint256"
        }
      ],
      "name": "updateMinStakeAmount",
      "outputs": [],
      "stateMutability": "nonpayable",
      "type": "function"
    },
    {
      "inputs": [
        {
          "internalType": "uint256",
          "name": "newValidationPeriod",
          "type": "uint256"
        }
      ],
      "name": "updateValidationPeriod",
      "outputs": [],
      "stateMutability": "nonpayable",
      "type": "function"
    },
    {
      "inputs": [
        {
          "internalType": "uint256",
          "name": "newValidatorScoreKappa",
          "type": "uint256"
        }
      ],
      "name": "updateValidatorScoreKappa",
      "outputs": [],
      "stateMutability": "nonpayable",
      "type": "function"
    },
    {
      "inputs": [
        {
          "internalType": "uint256",
          "name": "newValidatorScoreMinTrust",
          "type": "uint256"
        }
      ],
      "name": "updateValidatorScoreMinTrust",
      "outputs": [],
      "stateMutability": "nonpayable",
      "type": "function"
    },
    {
      "inputs": [
        {
          "internalType": "uint256",
          "name": "newValidatorScoreRho",
          "type": "uint256"
        }
      ],
      "name": "updateValidatorScoreRho",
      "outputs": [],
      "stateMutability": "nonpayable",
      "type": "function"
    },
    {
      "inputs": [
        {
          "internalType": "address[]",
          "name": "validators",
          "type": "address[]"
        },
        {
          "internalType": "uint256[]",
          "name": "weights",
          "type": "uint256[]"
        }
      ],
      "name": "updateWeights",
      "outputs": [],
      "stateMutability": "nonpayable",
      "type": "function"
    },
    {
      "inputs": [
        {
          "internalType": "address",
          "name": "newImplementation",
          "type": "address"
        },
        {
          "internalType": "bytes",
          "name": "data",
          "type": "bytes"
        }
      ],
      "name": "upgradeToAndCall",
      "outputs": [],
      "stateMutability": "payable",
      "type": "function"
    },
    {
      "inputs": [],
      "name": "validationPeriod",
      "outputs": [
        {
          "internalType": "uint256",
          "name": "",
          "type": "uint256"
        }
      ],
      "stateMutability": "view",
      "type": "function"
    },
    {
      "inputs": [],
      "name": "validatorScoreKappa",
      "outputs": [
        {
          "internalType": "uint256",
          "name": "",
          "type": "uint256"
        }
      ],
      "stateMutability": "view",
      "type": "function"
    },
    {
      "inputs": [],
      "name": "validatorScoreMinTrust",
      "outputs": [
        {
          "internalType": "uint256",
          "name": "",
          "type": "uint256"
        }
      ],
      "stateMutability": "view",
      "type": "function"
    },
    {
      "inputs": [],
      "name": "validatorScoreRho",
      "outputs": [
        {
          "internalType": "uint256",
          "name": "",
          "type": "uint256"
        }
      ],
      "stateMutability": "view",
      "type": "function"
    },
    {
      "inputs": [
        {
          "internalType": "address",
          "name": "validatorAddress",
          "type": "address"
        }
      ],
      "name": "validatorWeights",
      "outputs": [
        {
          "internalType": "address[]",
          "name": "validators",
          "type": "address[]"
        },
        {
          "internalType": "uint256[]",
          "name": "weights",
          "type": "uint256[]"
        }
      ],
      "stateMutability": "view",
      "type": "function"
    },
    {
      "inputs": [
        {
          "internalType": "uint256",
          "name": "index",
          "type": "uint256"
        }
      ],
      "name": "validators",
      "outputs": [
        {
          "components": [
            {
              "internalType": "address",
              "name": "validatorAddress",
              "type": "address"
            },
            {
              "internalType": "address",
              "name": "ownerAddress",
              "type": "address"
            },
            {
              "internalType": "uint256",
              "name": "stakeAmount",
              "type": "uint256"
            },
            {
              "internalType": "enum IDataLiquidityPool.ValidatorStatus",
              "name": "status",
              "type": "uint8"
            },
            {
              "internalType": "uint256",
              "name": "firstBlockNumber",
              "type": "uint256"
            },
            {
              "internalType": "uint256",
              "name": "lastBlockNumber",
              "type": "uint256"
            },
            {
              "internalType": "uint256",
              "name": "grantedAmount",
              "type": "uint256"
            },
            {
              "internalType": "uint256",
              "name": "filesToVerifyIndex",
              "type": "uint256"
            },
            {
              "internalType": "uint256",
              "name": "filesToVerifyCount",
              "type": "uint256"
            }
          ],
          "internalType": "struct IDataLiquidityPool.ValidatorInfoResponse",
          "name": "",
          "type": "tuple"
        }
      ],
      "stateMutability": "view",
      "type": "function"
    },
    {
      "inputs": [],
      "name": "validatorsCount",
      "outputs": [
        {
          "internalType": "uint256",
          "name": "",
          "type": "uint256"
        }
      ],
      "stateMutability": "view",
      "type": "function"
    },
    {
      "inputs": [
        {
          "internalType": "address",
          "name": "validatorAddress",
          "type": "address"
        }
      ],
      "name": "validatorsInfo",
      "outputs": [
        {
          "components": [
            {
              "internalType": "address",
              "name": "validatorAddress",
              "type": "address"
            },
            {
              "internalType": "address",
              "name": "ownerAddress",
              "type": "address"
            },
            {
              "internalType": "uint256",
              "name": "stakeAmount",
              "type": "uint256"
            },
            {
              "internalType": "enum IDataLiquidityPool.ValidatorStatus",
              "name": "status",
              "type": "uint8"
            },
            {
              "internalType": "uint256",
              "name": "firstBlockNumber",
              "type": "uint256"
            },
            {
              "internalType": "uint256",
              "name": "lastBlockNumber",
              "type": "uint256"
            },
            {
              "internalType": "uint256",
              "name": "grantedAmount",
              "type": "uint256"
            },
            {
              "internalType": "uint256",
              "name": "filesToVerifyIndex",
              "type": "uint256"
            },
            {
              "internalType": "uint256",
              "name": "filesToVerifyCount",
              "type": "uint256"
            }
          ],
          "internalType": "struct IDataLiquidityPool.ValidatorInfoResponse",
          "name": "",
          "type": "tuple"
        }
      ],
      "stateMutability": "view",
      "type": "function"
    },
    {
      "inputs": [],
      "name": "validatorsWithFilesToVerify",
      "outputs": [
        {
          "internalType": "address[]",
          "name": "",
          "type": "address[]"
        }
      ],
      "stateMutability": "view",
      "type": "function"
    },
    {
      "inputs": [
        {
          "internalType": "uint256",
          "name": "",
          "type": "uint256"
        }
      ],
      "name": "verifiedFiles",
      "outputs": [
        {
          "internalType": "bool",
          "name": "",
          "type": "bool"
        }
      ],
      "stateMutability": "view",
      "type": "function"
    },
    {
      "inputs": [
        {
          "internalType": "uint256",
          "name": "fileId",
          "type": "uint256"
        },
        {
          "internalType": "uint256",
          "name": "score",
          "type": "uint256"
        },
        {
          "internalType": "uint256",
          "name": "authenticity",
          "type": "uint256"
        },
        {
          "internalType": "uint256",
          "name": "ownership",
          "type": "uint256"
        },
        {
          "internalType": "uint256",
          "name": "quality",
          "type": "uint256"
        },
        {
          "internalType": "uint256",
          "name": "uniqueness",
          "type": "uint256"
        },
        {
          "internalType": "string",
          "name": "metadata",
          "type": "string"
        }
      ],
      "name": "verifyFile",
      "outputs": [],
      "stateMutability": "nonpayable",
      "type": "function"
    },
    {
      "inputs": [],
      "name": "version",
      "outputs": [
        {
          "internalType": "uint256",
          "name": "",
          "type": "uint256"
        }
      ],
      "stateMutability": "pure",
      "type": "function"
    }
  ],
  "bytecode": "0x60a0806040523461002a57306080526154fe9081610030823960805181818161121d015261134f0152f35b600080fdfe6080604052600436101561001257600080fd5b60003560e01c806301ffc9a714610562578063020b42961461055d578063089aed0d146105585780631201c54714610553578063122134991461054e578063126bd44f14610549578063132c58e9146105445780631351fa791461053f5780631a8bcb1d1461053a5780631e0b35e91461053557806320206aca14610530578063248a9ca31461052b578063248bfc3b146105265780632d937ce8146105215780632f2ff15d1461051c57806335aa2e441461051757806336568abe146105125780633cb5d1001461050d5780633f4ba83a146105085780634b33273b146105035780634b545f3a146104fe5780634dc47d34146104f95780634f1ef286146104f457806352d1902d146104ef57806354fd4d50146104ea578063572d356e146104e5578063585a22e7146104e05780635c975abb146104db57806361b10e69146104d657806366364c09146104d15780636b289f5b146104cc5780636f7cefc4146104c7578063715018a6146104c257806374c5ad4f146104bd5780637569b3d7146104b857806376980d93146104b357806376bc9869146104ae57806379ba5097146104a95780637a44e8a6146104a45780637efd1b5f1461049f578063817b1cd21461049a5780638456cb59146104955780638686ffa41461049057806386c216bf1461048b5780638afe35b9146104865780638da5cb5b14610481578063916e1c571461047c57806391a045521461047757806391d148541461047257806393835a5b1461046d5780639b42b552146104685780639de70258146104635780639f4c047c1461045e578063a217fddf14610459578063a71e0d1b14610445578063a7f91a5114610454578063ab049ffd1461044f578063ad3cb1cc1461044a578063b076428214610445578063b3aa4e7b14610440578063bb1f92c71461043b578063bd704e6814610436578063c1939b2014610431578063c41d3b631461042c578063c5064f3d14610427578063c6b61e4c14610422578063d28bca841461041d578063d4e0187214610418578063d547741f14610413578063d7d560351461040e578063d8060cd514610409578063dbd9a03114610404578063ded80dc5146103ff578063dfb5e9ba146103fa578063e2787e3d146103f5578063e30c3978146103f0578063e3f43923146103eb578063eaeb2ec8146103e6578063ed612f8c146103e1578063f1887684146103dc578063f1c61bb6146103d7578063f2fde38b146103d2578063f4c714b4146103cd578063f8ef9f80146103c85763fc0c546a146103c357600080fd5b612eee565b612ea2565b612e83565b612dfc565b612d8f565b612d71565b612d53565b612d37565b612ccf565b612c99565b612c7b565b612c5d565b612c2a565b612aa5565b612a59565b61292c565b612834565b6127e8565b612660565b612612565b6125f4565b6125d6565b61246f565b612423565b6123b4565b612355565b6121a1565b612281565b612240565b61220f565b612118565b612081565b611ffd565b611fdf565b611e37565b611dd8565b611dba565b611d9c565b611d66565b611c85565b611b31565b611aff565b611a98565b611a7a565b611a56565b611a0a565b6119b7565b61199d565b6117bf565b6117a1565b6116f7565b6115fb565b6115dd565b611588565b61150b565b6114ae565b61147e565b6113cf565b6113b1565b611395565b61133c565b6111cd565b6110ba565b61105f565b611004565b610f8d565b610f28565b610ee1565b610e97565b610dab565b610d8d565b610bfa565b610aa7565b610a5b565b610a3d565b6109f1565b6108aa565b61088c565b61086e565b610822565b6107c2565b6107a4565b610696565b346105b85760203660031901126105b85760043563ffffffff60e01b81168091036105b857602090637965db0b60e01b81149081156105a7575b506040519015158152f35b6301ffc9a760e01b1490503861059c565b600080fd5b600435906001600160a01b03821682036105b857565b602435906001600160a01b03821682036105b857565b35906001600160a01b03821682036105b857565b90815180825260208080930193019160005b82811061061d575050505090565b83516001600160a01b03168552938101939281019260010161060f565b90815180825260208080930193019160005b82811061065a575050505090565b83518552938101939281019260010161064c565b9091610685610693936040845260408401906105fd565b91602081840391015261063a565b90565b346105b85760203660031901126105b8576001600160a01b036106b76105bd565b16600052601360205260406000206106f260036106e0601c54600052601d602052604060002090565b01546000526015602052604060002090565b80546106fd81612f17565b9261070782612f17565b92600960009201915b83811061072a576040518061072688888361066e565b0390f35b8061076561074c61074061074060019587614ea1565b6001600160a01b031690565b6107568389612f5f565b6001600160a01b039091169052565b6107926107786107406107408487614ea1565b6001600160a01b0316600090815260208690526040902090565b5461079d8289612f5f565b5201610710565b346105b85760003660031901126105b8576020600554604051908152f35b346105b85760203660031901126105b8576004356107de614224565b6000546107f9908290309033906001600160a01b0316614254565b60065490810180911161081d57600655600160008051602061544983398151915255005b612f78565b346105b85760203660031901126105b8577f988cc07d104f02f221da739f2faa4473eb99b20c035e2e95f4b5d21ce2ecc61360206004356108616142ac565b80600c55604051908152a1005b346105b85760003660031901126105b8576020601054604051908152f35b346105b85760003660031901126105b8576020600754604051908152f35b346105b85760203660031901126105b8576004356108d2816000526018602052604060002090565b8054336001600160a01b03909116036109df5760068101908154158015906109c6575b80156109b7575b6109a557610915610911600783015460ff1690565b1590565b610993577fe1bcdf634ab88f36a3d5f11a93ce810f6e7804d1d456dfb6046e21046e2a0c619161095b610956600561098e9401928354809155600654612fe3565b600655565b60005481546109749133906001600160a01b03166142cd565b546040805194855260208501919091523393918291820190565b0390a2005b604051636021f5f360e11b8152600490fd5b6040516315e34e0560e01b8152600490fd5b506006546005820154116108fc565b506109d86001820154600e5490612fb1565b42106108f5565b60405163abea322960e01b8152600490fd5b346105b85760203660031901126105b8577f49713882dce7cebaf1e95b21d928f97374855c5adfabf73652b8230de06e47796020600435610a306142ac565b80600955604051908152a1005b346105b85760003660031901126105b8576020600d54604051908152f35b346105b85760203660031901126105b8577f57f8ff470bd82228a577f3475415ce3850805da1616a853e77db8a8526dc21d36020600435610a9a6142ac565b80600255604051908152a1005b346105b85760203660031901126105b8576004356000526000805160206154098339815191526020526020600160406000200154604051908152f35b634e487b7160e01b600052604160045260246000fd5b61012081019081106001600160401b03821117610b1557604052565b610ae3565b604081019081106001600160401b03821117610b1557604052565b608081019081106001600160401b03821117610b1557604052565b90601f801991011681019081106001600160401b03821117610b1557604052565b60405190610b7e82610af9565b565b60405190610b7e82610b35565b6001600160401b038111610b1557601f01601f191660200190565b929192610bb482610b8d565b91610bc26040519384610b50565b8294818452818301116105b8578281602093846000960137010152565b9080601f830112156105b85781602061069393359101610ba8565b346105b85760403660031901126105b8576001600160401b036004358181116105b857610c2b903690600401610bdf565b906024359081116105b8576007610c49610d04923690600401610bdf565b92610c5261430b565b610c5a613519565b610cab6040516020810190610c8181610c738487612ff0565b03601f198101835282610b50565b519020610ca6610ca161091183600052601a602052604060002054151590565b613007565b614f3b565b50610ced60195494610ce4610cca876000526018602052604060002090565b80546001600160a01b031916331781559360038501613130565b60048301613130565b42600182015543600882015501805460ff19169055565b600f5415610d7f575b610d1681601055565b33600090815260208052604090208190610d4a906001610d368254613201565b918281550190600052602052604060002090565b5560405190815233907f2b274a65505764a0b5cd751243bb52c611c94d959a38ef4ccc3452bd8758ec8590806020810161098e565b610d8881600f55565b610d0d565b346105b85760003660031901126105b8576020600f54604051908152f35b346105b85760403660031901126105b857610df7600435610dca6105d3565b9080600052600080516020615409833981519152602052610df2600160406000200154614336565b614386565b005b60051115610e0357565b634e487b7160e01b600052602160045260246000fd5b906005821015610e035752565b91909161012081019260018060a01b03808251168352602082015116602083015260408101516040830152610e6360608201516060840190610e19565b6080810151608083015260a081015160a083015260c081015160c083015260e081015160e083015261010080910151910152565b346105b85760203660031901126105b857610eb0613210565b506004356000526012602052610726610ed560018060a01b036040600020541661352e565b60405191829182610e26565b346105b85760403660031901126105b857610efa6105d3565b336001600160a01b03821603610f1657610df790600435614427565b60405163334bd91960e11b8152600490fd5b346105b85760203660031901126105b857610f41613255565b50600435600052601f602052610726610f6660018060a01b036040600020541661326e565b6040805182516001600160a01b031681526020928301519281019290925290918291820190565b346105b85760003660031901126105b857610fa66142ac565b600080516020615429833981519152805460ff811615610ff25760ff191690557f5db9ee0a495bf2e6ff9c91a7834c1ba4fdd244a5e8aa4e537bd38aeae4b073aa6020604051338152a1005b604051638dfc202b60e01b8152600490fd5b346105b85760203660031901126105b857600435611020614224565b60005461103b908290309033906001600160a01b0316614254565b60055490810180911161081d57600555600160008051602061544983398151915255005b346105b85760203660031901126105b857610726610f6661107e6105bd565b61326e565b916110ac9061109e61069395936060865260608601906105fd565b90848203602086015261063a565b91604081840391015261063a565b346105b85760203660031901126105b85760043580600052601d6020526110f36003604060002001546000526015602052604060002090565b9081549061110082612f17565b9161110a81612f17565b9361112861111783612f17565b93600052601d602052604060002090565b6004019060005b8381106111465760405180610726878a8a84611083565b8061116661115c61074061074060019587614ea1565b610756838a612f5f565b611183610778611176838a612f5f565b516001600160a01b031690565b5461118e828a612f5f565b52816111ba6111a0611176848b612f5f565b6001600160a01b0316600090815260208790526040902090565b01546111c68288612f5f565b520161112f565b60403660031901126105b8576111e16105bd565b6024356001600160401b0381116105b857366023820112156105b857611211903690602481600401359101610ba8565b6001600160a01b0391907f00000000000000000000000000000000000000000000000000000000000000008316308114908115611320575b5061130e57602060049361125b6142ac565b6040516352d1902d60e01b8152948591829086165afa600093816112dd575b506112a457604051634c9c8ce360e01b81526001600160a01b0383166004820152602490fd5b0390fd5b906000805160206153e983398151915283036112c457610df792506150f2565b604051632a87526960e21b815260048101849052602490fd5b61130091945060203d602011611307575b6112f88183610b50565b8101906144bf565b923861127a565b503d6112ee565b60405163703e46dd60e11b8152600490fd5b9050836000805160206153e98339815191525416141538611249565b346105b85760003660031901126105b8577f00000000000000000000000000000000000000000000000000000000000000006001600160a01b0316300361130e5760206040516000805160206153e98339815191528152f35b346105b85760003660031901126105b857602060405160018152f35b346105b85760003660031901126105b8576020600854604051908152f35b346105b85760203660031901126105b8576004356001600160401b0381116105b8576113ff903690600401610bdf565b336000526013602052600260ff81604060002001541661141e81610df9565b0361142c57610df7906132a6565b3360009081526013602052604090206112a09061144f906002905b015460ff1690565b61145881610df9565b604051636c3bf78960e01b81526002600482015260248101919091529081906044820190565b346105b85760003660031901126105b857602060ff60008051602061542983398151915254166040519015158152f35b346105b85760203660031901126105b8577f1e12137a10ce5a9f14d2c22eb6f2a4bc56c19ad9b9bbf9d0b2c5c392cc2fb2ae60206004356114ed6142ac565b80600e55604051908152a1005b9060206106939281815201906105fd565b346105b85760003660031901126105b85760405180601654918281526020809101926016600052600080516020615489833981519152916000905b828210611571576107268561155d81890382610b50565b6040519182916020835260208301906105fd565b835486529485019460019384019390910190611546565b346105b85760203660031901126105b8577f2fe8cb48ce95af273ee232223c3a0fbda25a65208753e99801ce508751f2b7fb60206004356115c76142ac565b6115d043614013565b80600755604051908152a1005b346105b85760003660031901126105b8576020600c54604051908152f35b346105b85760008060031936011261167d576116156142ac565b6000805160206154a983398151915280546001600160a01b03199081169091556000805160206153c98339815191528054918216905581906001600160a01b03167f8be0079c531659141344cd1fd0a4f28419497f9722a3daafe3b4186f6b6457e08280a380f35b80fd5b6001600160401b038111610b155760051b60200190565b9080601f830112156105b85760209082356116b181611680565b936116bf6040519586610b50565b81855260208086019260051b8201019283116105b857602001905b8282106116e8575050505090565b813581529083019083016116da565b346105b85760403660031901126105b8576001600160401b036004358181116105b857366023820112156105b857806004013561173381611680565b916117416040519384610b50565b8183526020916024602085019160051b830101913683116105b857602401905b82821061178a57602435858782116105b857611784610df7923690600401611697565b9061340e565b838091611796846105e9565b815201910190611761565b346105b85760003660031901126105b8576020601e54604051908152f35b346105b85760603660031901126105b8576117d86105bd565b6117e06105d3565b604435906117ec61430b565b6117f4614224565b6001600160a01b0383166000908152601360205260409020600281019161181c835460ff1690565b61182581610df9565b8061196a57506003548410611958576000547fc1a1f15666b0235d7e5ed7db678cfc0e9451b046c234011592b887be1434fd30936118a1916118759087906001600160a01b031630903390614254565b83546001600160a01b0319166001600160a01b038416178455856001850155600160ff19825416179055565b6000805160206153c9833981519152546001600160a01b039285918416331461194d575b50506118da6118d5601154613201565b601155565b611913856118f46011546000526012602052604060002090565b80546001600160a01b0319166001600160a01b03909216919091179055565b61192761192285600454612fb1565b600455565b6040519384528116931691602090a3610df7600160008051602061544983398151915255565b6005015583386118c5565b604051630103be3b60e21b8152600490fd5b806119776112a092610df9565b604051636c3bf78960e01b81526000600482015260248101919091529081906044820190565b346105b85760003660031901126105b857610df743614013565b346105b85760003660031901126105b8576000805160206154a983398151915254336001600160a01b03909116036119f257610df7336144ce565b60405163118cdaa760e01b8152336004820152602490fd5b346105b85760203660031901126105b8577f984c7e868ec55d6f90d9e5305b0186de4e98c8bef8cebdab26d9133374d49fd46020600435611a496142ac565b80600d55604051908152a1005b346105b85760203660031901126105b857610726610ed5611a756105bd565b61352e565b346105b85760003660031901126105b8576020600454604051908152f35b346105b85760003660031901126105b857611ab16142ac565b611ab961430b565b600080516020615429833981519152600160ff198254161790557f62e78cea01bee320cd4e420270b5ea74000d11b0c9f74754ebdbfc544b05a2586020604051338152a1005b346105b85760a03660031901126105b8576020611b29608435606435604435602435600435613751565b604051908152f35b346105b85760003660031901126105b8576020600b54604051908152f35b90600182811c92168015611b7f575b6020831014611b6957565b634e487b7160e01b600052602260045260246000fd5b91607f1691611b5e565b90604051918260008254611b9c81611b4f565b90818452602094600191600181169081600014611c0a5750600114611bcb575b505050610b7e92500383610b50565b600090815285812095935091905b818310611bf2575050610b7e9350820101388080611bbc565b85548884018501529485019487945091830191611bd9565b92505050610b7e94925060ff191682840152151560051b820101388080611bbc565b60005b838110611c3f5750506000910152565b8181015183820152602001611c2f565b90602091611c6881518092818552858086019101611c2c565b601f01601f1916010190565b906020610693928181520190611c4f565b346105b85760008060031936011261167d5760405190806001805490611caa82611b4f565b8086529260209260018116908115611d395750600114611ce1575b61072686611cd581880382610b50565b60405191829182611c74565b9350600184527fb10e2d527612073b26eecdfd717e6a320cf44b4afac2b0732d9fcbe2b7fa0cf65b838510611d2657505050508101602001611cd58261072638611cc5565b8054868601840152938201938101611d09565b905086955061072696935060209250611cd594915060ff191682840152151560051b820101929338611cc5565b346105b85760003660031901126105b8576000805160206153c9833981519152546040516001600160a01b039091168152602090f35b346105b85760003660031901126105b8576020601c54604051908152f35b346105b85760003660031901126105b8576020600a54604051908152f35b346105b85760403660031901126105b857602060ff611e2b611df86105d3565b600435600052600080516020615409833981519152845260406000209060018060a01b0316600052602052604060002090565b54166040519015158152f35b346105b85760203660031901126105b857611e506105bd565b6001600160a01b0381811660008181526013602052604081205490939192163303611fcd57611e7d614224565b611e85613519565b6001600160a01b03811660009081526013602052604090209060058201546109a5576002820190611eb7825460ff1690565b611ec081610df9565b60028103611f5e5750611f209291611eda611ee79261468d565b805460ff19166004179055565b60018101611efb6119228254600454612fe3565b8454611f18906001600160a01b031692546001600160a01b031690565b9054916142cd565b7f51407fafe7ef9bec39c65a12a4885a274190991bf1e9057fcc384fc77ff1a7f08280a2611f5b600160008051602061544983398151915255565b80f35b9050611f6981610df9565b600181141580611fb9575b611f86575090611ee7611f2092611eda565b80611f936112a092610df9565b604051636c3bf78960e01b81526003600482015260248101919091529081906044820190565b50611fc381610df9565b6003811415611f74565b6040516375d664db60e11b8152600490fd5b346105b85760003660031901126105b8576020601454604051908152f35b346105b85760008060031936011261167d57601c5481526020601d602052600360408320015482526015602052604082209160405180926020855492838152019483526020832092905b82821061206a576107268561205e81890382610b50565b604051918291826114fa565b835486529485019460019384019390910190612047565b346105b85760203660031901126105b85761209a6105bd565b6001600160a01b03818116600081815260136020526040812054909392163303611fcd576120c743614013565b82526013602052600260ff81604085200154166120e381610df9565b036120f157611f5b9061468d565b6001600160a01b031660009081526013602052604090206112a09061144f90600290611447565b346105b85760003660031901126105b857602060405160008152f35b610693916101209060018060a01b0383511681526020830151602082015260408301516040820152606083015160608201526080830151608082015260a083015160a082015260c083015160c082015260e083015160e08201528161010080940151938201520190611c4f565b346105b85760403660031901126105b8576107266121fb6121f66121c36105d3565b6121cb6137ec565b506004356000526018602052600e6040600020019060018060a01b0316600052602052604060002090565b613830565b604051918291602083526020830190612134565b346105b85760203660031901126105b857600435600052601b602052602060ff604060002054166040519015158152f35b346105b85760003660031901126105b8576020600954604051908152f35b60405190602082018281106001600160401b03821117610b155760405260008252565b346105b85760003660031901126105b8576107266040516122a181610b1a565b60058152640352e302e360dc1b6020820152604051918291602083526020830190611c4f565b60208082528251818301528201516001600160a01b0316604082015261069390604083015161231d61230761012092836060860152610140850190611c4f565b6060860151848203601f19016080860152611c4f565b93608081015160a084015260a081015160c084015260c081015160e084015260e0810151906101009182850152015191019015159052565b346105b85760403660031901126105b85761236e6105bd565b6123766138a0565b5060018060a01b03166000526020805260016040600020016024356000526020526107266123a8604060002054614100565b604051918291826122c7565b346105b85760e03660031901126105b85760c4356001600160401b0381116105b8576123e4903690600401610bdf565b336000526013602052600260ff81604060002001541661240381610df9565b0361142c57610df79060a4356084356064356044356024356004356139d5565b346105b85760203660031901126105b8577ff0874252a8e6b81d39166b2b8f7e569af412c51cabb37268f2d967e38526f7c860206004356124626142ac565b80600a55604051908152a1005b346105b8576101a03660031901126105b8576124896105bd565b6124916105d3565b60008051602061546983398151915254916001600160401b0360ff8460401c16159316801590816125ce575b60011490816125c4575b1590816125bb575b506125a957600080516020615469833981519152805467ffffffffffffffff191660011790556125359183612584575b6101843591610164359161014435916101243591610104359160e4359160c4359160a43591608435916064359160443591613b60565b61253b57005b600080516020615469833981519152805460ff60401b19169055604051600181527fc7f505b2f371ae2175ee4913f4499e1f2633a7b5936321eed1cdaeb6115181d290602090a1005b600080516020615469833981519152805460ff60401b1916600160401b1790556124ff565b60405163f92ee8a960e01b8152600490fd5b905015386124cf565b303b1591506124c7565b8491506124bd565b346105b85760003660031901126105b8576020600654604051908152f35b346105b85760003660031901126105b8576020600254604051908152f35b346105b85760203660031901126105b857600435600052601d602052608060406000208054906001810154906003600282015491015491604051938452602084015260408301526060820152f35b346105b85760403660031901126105b8576126796105bd565b6024356126846142ac565b61268c613519565b6001600160a01b038216600090815260136020526040902060028101805460ff166126b681610df9565b600281036127aa575091611922916126d461275994611eda8761468d565b6001810191825480821060001461278957506000546127509261271691839190612710906001600160a01b03165b91546001600160a01b031690565b906142cd565b6000546001600160a01b03166000805160206153c98339815191525490919061274a906001600160a01b0316918554612fe3565b916142cd565b54600454612fe3565b6001600160a01b03167f51407fafe7ef9bec39c65a12a4885a274190991bf1e9057fcc384fc77ff1a7f0600080a2005b6000546127a593919250612710906001600160a01b0316612702565b612750565b6127b381610df9565b6001811415806127d4575b611f86575091611922916126d461275994611eda565b506127de81610df9565b60038114156127be565b346105b85760203660031901126105b8577f3cd59cf395448ba3bfd2541dcb31ccd800b9e303281df0888a62ae5d5f673f5860206004356128276142ac565b80600855604051908152a1005b346105b85760403660031901126105b857610df76004356128536105d3565b908060005260008051602061540983398151915260205261287b600160406000200154614336565b614427565b9894909793969295919661014096878b019960018060a01b03168b5260209860208c015260408b0152151560608a0152608089015260a088015260c087015260e08601526101008501526101208401528351809252610160926020848201948460051b8301019501936000915b8483106128fd5750505050505090565b909192939495848061291c60019361015f198682030187528a51612134565b98019301930191949392906128ed565b346105b85760203660031901126105b8576129536004356000526018602052604060002090565b61297661297160036106e0601c54600052601d602052604060002090565b615199565b906129818251613cd6565b60008093600e8401945b8151811015612a03576129be6129a46111768385612f5f565b6001600160a01b0316600090815260208890526040902090565b60018101546129d1575b5060010161298b565b600191936129e16129fc92613830565b6129eb8288612f5f565b526129f68187612f5f565b50613201565b92906129c8565b505081528154610726906001600160a01b031691600184015493600281015490612a31600782015460ff1690565b6009820154600a83015490600b84015492600d600c860154950154956040519a8b9a8b612880565b346105b85760203660031901126105b8577f8448c02797b448f4946bc25b3bf925e5556d1df822c944da701c54bab8a3162f6020600435612a986142ac565b80600355604051908152a1005b346105b85760203660031901126105b857612abe6105bd565b612ac66142ac565b612ace613519565b600090601454612ae8816000526015602052604060002090565b612afb612af6825493613201565b601455565b612b116014546000526015602052604060002090565b935b828110612c07575050506001600160a01b0381166000908152601360205260409020906002820190612b46825460ff1690565b612b4f81610df9565b60018103612bd457506001600160a01b031692612b8a9190612b72908590615081565b50612b7c84615022565b50805460ff19166002179055565b6003439101556014546003612bab601c54600052601d602052604060002090565b01557f6b872750794b9ce90f9678e8d33652e3c79a1bc2868bf145d74bb04e7da83af8600080a2005b80612be16112a092610df9565b604051636c3bf78960e01b81526001600482015260248101919091529081906044820190565b80612c23612c1d61074061074060019587614ea1565b876149b4565b5001612b13565b346105b85760203660031901126105b857610726612c49600435613d70565b60405191829160208352602083019061063a565b346105b85760003660031901126105b8576020601954604051908152f35b346105b85760003660031901126105b8576020600e54604051908152f35b346105b85760003660031901126105b8576000805160206154a9833981519152546040516001600160a01b039091168152602090f35b346105b85760003660031901126105b857612ce8613f33565b604051809160208252805160208301526060612d2b612d1660208401516080604087015260a0860190611c4f565b6040840151858203601f190184870152611c4f565b91015160808301520390f35b346105b85760203660031901126105b857610df7600435614013565b346105b85760003660031901126105b8576020601154604051908152f35b346105b85760003660031901126105b8576020600354604051908152f35b346105b8576020806003193601126105b85760043560005260156020526040600020906040519081602084549182815201936000526020600020916000905b828210612de5576107268561205e81890382610b50565b835486529485019460019384019390910190612dce565b346105b85760203660031901126105b857612e156105bd565b612e1d6142ac565b6000805160206154a983398151915280546001600160a01b0319166001600160a01b039283169081179091556000805160206153c9833981519152549091167f38d16b8cac22d99fc7c124b9cd0de2d3fa1faef420bfe791d8c362d765e22700600080a3005b346105b85760203660031901126105b8576107266123a8600435614100565b346105b85760203660031901126105b8577f3ffb41bf6069f71b2f41fe721962b01d4e4ee8fe188cb480838d3a98a0b4e3a96020600435612ee16142ac565b80600b55604051908152a1005b346105b85760003660031901126105b8576000546040516001600160a01b039091168152602090f35b90612f2182611680565b612f2e6040519182610b50565b8281528092612f3f601f1991611680565b0190602036910137565b634e487b7160e01b600052603260045260246000fd5b8051821015612f735760209160051b010190565b612f49565b634e487b7160e01b600052601160045260246000fd5b906001820180921161081d57565b906706f05b59d3b20000820180921161081d57565b9190820180921161081d57565b90670de0b6b3a764000091820391821161081d57565b60001981019190821161081d57565b9190820391821161081d57565b9061300360209282815194859201611c2c565b0190565b1561300e57565b60405162461bcd60e51b815260206004820152601060248201526f119a5b19505b1c9958591e505919195960821b6044820152606490fd5b916130609183549060031b91821b91600019901b19161790565b9055565b90601f8211613071575050565b60019160009060016000527fb10e2d527612073b26eecdfd717e6a320cf44b4afac2b0732d9fcbe2b7fa0cf6906020601f850160051c830194106130d0575b601f0160051c01915b8281106130c65750505050565b81815583016130b9565b90925082906130b0565b90601f81116130e857505050565b6000916000526020600020906020601f850160051c83019410613126575b601f0160051c01915b82811061311b57505050565b81815560010161310f565b9092508290613106565b91909182516001600160401b038111610b1557613157816131518454611b4f565b846130da565b602080601f83116001146131965750819061306093949560009261318b575b50508160011b916000199060031b1c19161790565b015190503880613176565b90601f198316956131ac85600052602060002090565b926000905b8882106131e9575050836001959697106131d0575b505050811b019055565b015160001960f88460031b161c191690553880806131c6565b806001859682949686015181550195019301906131b1565b600019811461081d5760010190565b6040519061321d82610af9565b816101006000918281528260208201528260408201528260608201528260808201528260a08201528260c08201528260e08201520152565b6040519061326282610b1a565b60006020838281520152565b613276613255565b506001600160a01b03166000818152602080526040908190205490519161329c83610b1a565b8252602082015290565b906001918254926132b684611b4f565b6133fc578151936001600160401b038511610b1557846132d86132dd92611b4f565b613064565b602080601f8611600114613353575090613335857f6add9898d2e3ac145eab271cee721d90be6753e16f43906b29e7320f1056aa1795966133439594600091613348575b508160011b916000199060031b1c19161790565b905560405191829182611c74565b0390a1565b905084015138613321565b600160005290601f1986167fb10e2d527612073b26eecdfd717e6a320cf44b4afac2b0732d9fcbe2b7fa0cf6926000905b8282106133e5575050958392613343959492827f6add9898d2e3ac145eab271cee721d90be6753e16f43906b29e7320f1056aa179899106133cc575b5050811b019055611cd5565b85015160001960f88460031b161c1916905538806133c0565b808685968294968a01518155019501930190613384565b60405163eb6f177f60e01b8152600490fd5b336000526013602052600260ff81604060002001541661342d81610df9565b036134f65761343b43614013565b80518251036134e4573360009081526013602052604081206009019392905b81518110156134a7578061347060019284612f5f565b516134a0838060a01b036134848488612f5f565b51166001600160a01b0316600090815260208990526040902090565b550161345a565b507f9a6feb528db7c124455828cc2d247246c6570cacbb3b08e371942c04938595ad919293506134df9060405191829133958361066e565b0390a2565b60405163c21fe6bf60e01b8152600490fd5b336000908152601360205260409020600201546112a09060ff1661145881610df9565b610b7e43614013565b6005821015610e035752565b613536613210565b506001600160a01b0381166000908152601360205260409020613561905b546001600160a01b031690565b6001600160a01b038216600090815260136020526040902060018101549061358b90600290611447565b6001600160a01b0384166000908152601360205260409020600381015460048201546005830154600684015495909491936136039291906135f59060070154986135e56135d6610b71565b6001600160a01b03909c168c52565b6001600160a01b031660208b0152565b604089015260608801613522565b608086015260a085015260c084015260e083015261010082015290565b90670de0b6b3a76400009182810292818404149015171561081d57565b906706f05b59d3b20000918083029283040361081d57565b8181029291811591840414171561081d57565b634e487b7160e01b600052601260045260246000fd5b801561366857670de0b6b3a76400000490565b8115613668570490565b82811192831561374157810390811161081d57905b670de0b6b3a76400006136e3816136d3816136cb8780613655565b049585613655565b04936136dd61453c565b93613655565b04906658d15e1762800091820180921161081d5761370361370992614553565b90613655565b9115613729576106939161371f6137249261363d565b613691565b612f9c565b6137246106939261371f61373c9361363d565b612fbe565b90810390811161081d57906136b0565b83811194919385156137dc57810390811161081d57915b670de0b6b3a76400006137958161378b816137838880613655565b049685613655565b04946136dd61453c565b04820180921161081d576137036137ab92614553565b92156137c7576106939261371f6137c29284613655565b612fb1565b906137c26106939361371f61373c9484613655565b90810390811161081d5791613768565b604051906137f982610af9565b606061010083600080825280602083015280604083015280848301528060808301528060a08301528060c083015260e08201520152565b90613898600861383e610b71565b84546001600160a01b031681529360018101546020860152600281015460408601526003810154606086015260048101546080860152600581015460a0860152600681015460c0860152600781015460e086015201611b89565b610100830152565b604051906138ad82610af9565b81610100600091828152826020820152606060408201526060808201528260808201528260a08201528260c08201528260e08201520152565b156138ed57565b60405162461bcd60e51b815260206004820152600e60248201526d125b9d985b1a5908199a5b19525960921b6044820152606490fd5b1561392a57565b60405162461bcd60e51b815260206004820152602160248201527f56616c69646174696f6e20706572696f64206e6f742079657420656c617073656044820152601960fa1b6064820152608490fd5b1561398057565b60405162461bcd60e51b815260206004820152602760248201527f46696c6520616c726561647920766572696669656420627920746869732076616044820152663634b230ba37b960c91b6064820152608490fd5b956008613aa29294937f50f16c05266b477dec86455837e3aa673bcc4d8d528314a55493b4af53c80236976134df97613a0c613519565b613a208b6000526018602052604060002090565b96613a48613a4060018a0154613a378115156138e6565b600a5490612fb1565b421015613923565b336000908152600e8901602052604090209360018501613a69815415613979565b85546001600160a01b03191633178655429055436002860155896003860155600485015560058401556006830155600782015501613130565b60028101613ab08154613201565b9055613abb856147bc565b600781015460ff169081613b38575b50613ae9575b6040805194855260208501919091523393918291820190565b613b0d613b0085600052601b602052604060002090565b805460ff19166001179055565b600f548403613ad057613b33613b2e613b2586612f8e565b60105490614958565b600f55565b613ad0565b6005613b57613b4960095486613655565b670de0b6b3a7640000900490565b91015538613aca565b9a90613c3d90613c09613c8e98610b7e9f96613c939b613bff60029f9b613bfa613c479c613bf5613c0496613bf0613c429e613b9a6151f7565b613ba26151f7565b613baa6151f7565b613bb26151f7565b600160008051602061544983398151915255613bcc6151f7565b613bd46151f7565b600080516020615429833981519152805460ff19169055600255565b600b55565b600c55565b600d55565b600355565b600a55565b613c1287600855565b613c1b8c600755565b600080546001600160a01b0319166001600160a01b0392909216919091179055565b600955565b600e55565b613c516001601c55565b613c59614fac565b506001600052601d6020527f9de6abd965d55c3bb0cdbf6fa175050624c6ff8fe86f682dc08f2a450ede227893808555612fb1565b612fd4565b600182015501557f0129593a287c7be892e56181ff1238eb466a2c952dc53a3029140d1f3ddc4a8d60405180613cce81906001602083019252565b0390a16144ce565b90613ce082611680565b613ced6040519182610b50565b8281528092613cfe601f1991611680565b019060005b828110613d0f57505050565b602090613d1a6137ec565b82828501015201613d03565b90613d3082611680565b613d3d6040519182610b50565b8281528092613d4e601f1991611680565b019060005b828110613d5f57505050565b806060602080938501015201613d53565b60036106e0613d8992600052601d602052604060002090565b90815491613d9683612f17565b926000805b828110613ea9575015613e9c57613db181613d26565b9160005b828110613ded57505050613de8613de2613dd261069394956149c7565b613ddc8185614a99565b93614b4e565b91614c42565b614c91565b613df683612f17565b613e008286612f5f565b52613e0b8185612f5f565b50613e39613e1f6107406107408486614ea1565b6001600160a01b0316600090815260136020526040902090565b60090160005b848110613e50575050600101613db5565b80613e80613e6661074061074060019589614ea1565b6001600160a01b0316600090815260208590526040902090565b54613e9582613e8f878b612f5f565b51612f5f565b5201613e3f565b9050610693919250612f17565b600180613ebf613e1f610740610740868a614ea1565b0154613ecb8389612f5f565b52821580613eeb575b613ee2575b50600101613d9b565b91506001613ed9565b50613ef68288612f5f565b511515613ed4565b60405190608082018281106001600160401b03821117610b155760405260006060838281528160208201528160408201520152565b613f3b613efe565b50600f54613f53816000526018602052604060002090565b81151580613fec575b80613fd2575b613f98575050613f70610b80565b60008152613f7c61225e565b6020820152613f8961225e565b60408201526000606082015290565b613fc56004600183015492613fab610b80565b948552613fba60038201611b89565b602086015201611b89565b6040830152606082015290565b50613fe46001820154600a5490612fb1565b421015613f62565b5061400e61091161400784600052601b602052604060002090565b5460ff1690565b613f5c565b90601c5461402b81600052601d602052604060002090565b60019184600183015410156140f9579190815b61404c575b5050601c559050565b8181019285845410156140f257613c8e61409a6140748361406f6140a695614d27565b613201565b9561408987600052601d602052604060002090565b946003809101549086015554612f8e565b80845560085490612fb1565b82820155600754600282015590807f0129593a287c7be892e56181ff1238eb466a2c952dc53a3029140d1f3ddc4a8d604051806140e887829190602083019252565b0390a1919061403e565b9250614043565b5050509050565b6141086138a0565b50610693614123613554836000526018602052604060002090565b82600361413a826000526018602052604060002090565b016004614151836000526018602052604060002090565b016001614168846000526018602052604060002090565b01546142016005614183866000526018602052604060002090565b0154926141f7600661419f886000526018602052604060002090565b0154956141f26141d6600761144760026141c38d6000526018602052604060002090565b01549b6000526018602052604060002090565b996141df610b71565b9c8d526001600160a01b031660208d0152565b611b89565b60408a0152611b89565b6060880152608087015260a086015260c085015260e08401521515610100830152565b60008051602061544983398151915260028154146142425760029055565b604051633ee5aeb560e01b8152600490fd5b6040516323b872dd60e01b60208201526001600160a01b03928316602482015292909116604483015260648083019390935291815260a08101918183106001600160401b03841117610b1557610b7e92604052614eb5565b6000805160206153c9833981519152546001600160a01b031633036119f257565b60405163a9059cbb60e01b60208201526001600160a01b039092166024830152604480830193909352918152610b7e9161430682610b35565b614eb5565b60ff600080516020615429833981519152541661432457565b60405163d93c066560e01b8152600490fd5b60008181526000805160206154098339815191526020908152604080832033845290915290205460ff16156143685750565b6044906040519063e2517d3f60e01b82523360048301526024820152fd5b6000818152600080516020615409833981519152602081815260408084206001600160a01b038716855290915282205491929160ff1661442057818352602090815260408084206001600160a01b038616600090815292529020805460ff1916600117905533926001600160a01b0316917f2f8788117e7eff1d82e926ec794901d17c78024a50270940304540a733656f0d9080a4600190565b5050905090565b6000818152600080516020615409833981519152602081815260408084206001600160a01b038716855290915282205491929160ff161561442057818352602090815260408084206001600160a01b038616600090815292529020805460ff1916905533926001600160a01b0316917ff6391f5c32d9c69d2a47ea670b442974b53935d1edc7fd64eb21e047a839171b9080a4600190565b908160209103126105b8575190565b6000805160206154a983398151915280546001600160a01b03199081169091556000805160206153c983398151915280549182166001600160a01b0393841690811790915591167f8be0079c531659141344cd1fd0a4f28419497f9722a3daafe3b4186f6b6457e0600080a3565b610693633b9aca0061454d8161367e565b906151ea565b8015614687578061454d61461f61461561460b6146016145f76145ed6145e360016106939a6000908b60801c8061467b575b508060401c8061466e575b508060201c80614661575b508060101c80614654575b508060081c80614647575b508060041c8061463a575b508060021c8061462d575b50821c614626575b811c1b6145dc818b613691565b0160011c90565b6145dc818a613691565b6145dc8189613691565b6145dc8188613691565b6145dc8187613691565b6145dc8186613691565b6145dc8185613691565b8092613691565b81016145cf565b60029150910190386145c7565b60049150910190386145bc565b60089150910190386145b1565b60109150910190386145a6565b602091509101903861459b565b6040915091019038614590565b91505060809038614585565b50600090565b6001600160a01b038116600090815260136020526040902060145460008181526015602052604081206146c4612af6825494613201565b6146da6014546000526015602052604060002090565b915b8381106147735750505050600781015460068201541461475b575b6014546003614712601c54600052601d602052604060002090565b015560028101805460ff1916600317905543600491909101556001600160a01b03167fa67d7c753ca05fa1e36313fd1d92c4f764bbdb3db54a10d0d536a3ac898e29cf600080a2565b61476d6001600160a01b0383166152d0565b506146f7565b8061478661074061074060019486614ea1565b828060a01b0380891691160361479d575b016146dc565b6147b66147b06107406107408487614ea1565b856149b4565b50614797565b6147d0906000526018602052604060002090565b6000808182806003946147f761297160036106e0601c54600052601d602052604060002090565b9482958399600e8a019a5b82518110156148ad5761483561481b6111768386612f5f565b6001600160a01b0316600090815260208e90526040902090565b8a600182015461484a575b5050600101614802565b6001929a98600761489661488a61487e614872879c9f9b9d61489f976148a599015490612fb1565b9c60048d015490612fb1565b9960058c015490612fb1565b9c60068b015490612fb1565b98015490612fb1565b97613201565b98908a614840565b5099509492909650856148c5575b5050505050505050565b8592836148d3818094613691565b98818a60098d01556148e491613691565b600a8b01556148f291613691565b600b89015561490091613691565b600c87015561490e91613691565b600d8501555160011c109081614945575b50614931575b808080808080806148bb565b600701805460ff1916600117905538614925565b6706f05b59d3b20000915010153861491f565b81811115614967575050600090565b6000818152602090601b825260409060ff828220541615928361499f575b50505061499a5761499590613201565b614958565b905090565b60019350601890522001541515388080614985565b610693916001600160a01b031690615081565b906000916149d58151612f17565b91835b8251851015614a00576149eb8584612f5f565b51810180911161081d576001909401936149d8565b935091908315614a485760005b8151811015614a415780614a308661371f614a2a60019587612f5f565b51613620565b614a3a8286612f5f565b5201614a0d565b5090925050565b60405162461bcd60e51b815260206004820152602360248201527f4469766973696f6e206279207a65726f20696e206e6f726d616c697a655374616044820152626b657360e81b6064820152608490fd5b9190614aa58351612f17565b90600093600090600b54945b8151831015614b4457865b614ac68484612f5f565b5151811015614b38578087614ae1600193613e8f8888612f5f565b5111614aee575b01614abc565b614b28614afb8289612f5f565b51614b22613b49614b1085613e8f8b8b612f5f565b51614b1b8a8c612f5f565b5190613655565b90612fb1565b614b328289612f5f565b52614ae8565b50600190920191614ab1565b9550505050905090565b614b588151612f17565b90600092835b8251851015614bc957805b614b738685612f5f565b5151811015614bbd5780614bac614b8c60019388612f5f565b51614b22613b49614ba185613e8f8d8c612f5f565b51614b1b8c8a612f5f565b614bb68288612f5f565b5201614b69565b50600190940193614b5e565b9493505050825b8151841015614bf857614bf0600191614be98685612f5f565b5190612fb1565b930192614bd0565b92508215614c365760005b8151811015614c315780614c208561371f614a2a60019587612f5f565b614c2a8285612f5f565b5201614c03565b509150565b61069391925051612f17565b90614c4d8251612f17565b600d54600c549360005b8151811015614c895780614c788785614c7260019587612f5f565b5161369b565b614c828287612f5f565b5201614c57565b509193505050565b9190614c9d8351612f17565b906000936000945b8151861015614cec57614ce4600191614ccf613b49614cc48a87612f5f565b51614b1b8b89612f5f565b614cd98988612f5f565b52614be98887612f5f565b950194614ca5565b945050508215614c365760005b8151811015614c315780614d168561371f614a2a60019587612f5f565b614d208285612f5f565b5201614cf9565b614d4060036106e083600052601d602052604060002090565b805491614d60614d4f82613d70565b91600052601d602052604060002090565b600092600282019160040190845b868110614d7e5750505050505050565b80614d9161074061074060019486614ea1565b614daa613b49614da1848a612f5f565b51885490613655565b8390614dd482614dcc858a9060018060a01b0316600052602052604060002090565b015482612fe3565b91614ddf858b612f5f565b516001600160a01b038516600090815260208a905260409020908155015580151580614e59575b614e13575b505001614d6e565b614e5291614e2b614e2683600554612fe3565b600555565b89546001600160a01b03918216600090815260136020526040902091169061271090613554565b3880614e0b565b508060055411614e06565b601654811015612f735760166000526000805160206154898339815191520190600090565b8054821015612f735760005260206000200190600090565b90614eab91614e89565b90549060031b1c90565b60018060a01b031690614edf600080836020829551910182875af1614ed8615226565b9084615365565b908151918215159283614f0f575b505050614ef75750565b60249060405190635274afe760e01b82526004820152fd5b819293509060209181010312614f3757602001519081159182150361167d5750388080614eed565b5080fd5b80600052601a6020526040600020541560001461468757601954600160401b811015610b15576001810180601955811015612f735781907f944998273e477b495144fb8794c914197f3ccb46be2900f4698fd0ef743c9695015560195490600052601a602052604060002055600190565b600080805260176020527fd840e16649f6b9a295d95876f4633d3a6b10b55e8162971cf78afd886d5ec89b5461069357601654600160401b811015610b15576001810180601655811015612f73578190600080516020615489833981519152015560406016549180805260176020522055600190565b8060005260176020526040600020541560001461468757601654600160401b811015610b15576001810180601655811015612f735781906000805160206154898339815191520155601654906000526017602052604060002055600190565b60018101908260005281602052604060002054156000146150ea578054600160401b811015610b15576150d56150be826001879401855584614e89565b819391549060031b91821b91600019901b19161790565b90555491600052602052604060002055600190565b505050600090565b90813b15615178576000805160206153e983398151915280546001600160a01b0319166001600160a01b0384169081179091557fbc7cd75a20ee27fd9adebab32041f755214dbc6bffa90cc0225b39da2e5c2d3b600080a280511561515d5761515a91615256565b50565b50503461516657565b60405163b398979f60e01b8152600490fd5b604051634c9c8ce360e01b81526001600160a01b0383166004820152602490fd5b90604051918281549182825260209260208301916000526020600020936000905b8282106151d057505050610b7e92500383610b50565b8554845260019586019588955093810193909101906151ba565b908082101561499a575090565b60ff6000805160206154698339815191525460401c161561521457565b604051631afcd79f60e31b8152600490fd5b3d15615251573d9061523782610b8d565b916152456040519384610b50565b82523d6000602084013e565b606090565b60008061069393602081519101845af461526e615226565b91615365565b60165480156152ba5760001981019080821015612f73577fd833147d7dc355ba459fc788f669e58cfaf9dc25ddcd0702e87d69c7b5124288600091601683520155601655565b634e487b7160e01b600052603160045260246000fd5b600081815260176020526040902054801561535e57600019918183019180831161081d5760165493840193841161081d57838360009561532b9503615331575b50505061531b615274565b6000526017602052604060002090565b55600190565b61531b61534f91615347614eab61535595614e64565b928391614e64565b90613046565b55388080615310565b5050600090565b9061538c575080511561537a57805190602001fd5b604051630a12f52160e11b8152600490fd5b815115806153bf575b61539d575090565b604051639996b31560e01b81526001600160a01b039091166004820152602490fd5b50803b1561539556fe9016d09d72d40fdae2fd8ceac6b6234c7706214fd39c1cd1e609a0528c199300360894a13ba1a3210667c828492db98dca3e2076cc3735a920a3ca505d382bbc02dd7bc7dec4dceedda775e58dd541e08a116c6c53815c0bd028192f7b626800cd5ed15c6e187e77e9aee88184c21f4f2182ab5827cb3b7e07fbedcd63f033009b779b17422d0df92223018b32b4d1fa46e071723d6817e2486d003becc55f00f0c57e16840df040f15088dc2f81fe391c3923bec73e23a9662efc9c229c6a00d833147d7dc355ba459fc788f669e58cfaf9dc25ddcd0702e87d69c7b5124289237e158222e3e6968b72b9db0d8043aacf074ad9f650f0d1606b4d82ee432c00a2646970667358221220ec54dddb040492d6ac1694af0f083698894817cedfd24f7af83bc2af261733e064736f6c63430008180033",
  "linkReferences": {},
  "deployedLinkReferences": {}
}